{
  "contractName": "FileStorage",
  "abi": [
    {
      "anonymous": false,
      "inputs": [
        {
          "indexed": false,
          "internalType": "string",
          "name": "hash",
          "type": "string"
        },
        {
          "indexed": false,
          "internalType": "address",
          "name": "uploader",
          "type": "address"
        }
      ],
      "name": "FileUploaded",
      "type": "event"
    },
    {
      "inputs": [
        {
          "internalType": "string",
          "name": "",
          "type": "string"
        }
      ],
      "name": "files",
      "outputs": [
        {
          "internalType": "string",
          "name": "hash",
          "type": "string"
        },
        {
          "internalType": "address",
          "name": "uploader",
          "type": "address"
        }
      ],
      "stateMutability": "view",
      "type": "function",
      "constant": true
    },
    {
      "inputs": [
        {
          "internalType": "string",
          "name": "_hash",
          "type": "string"
        }
      ],
      "name": "uploadFile",
      "outputs": [],
      "stateMutability": "nonpayable",
      "type": "function"
    },
    {
      "inputs": [
        {
          "internalType": "string",
          "name": "_hash",
          "type": "string"
        }
      ],
      "name": "verifyFile",
      "outputs": [
        {
          "internalType": "address",
          "name": "uploader",
          "type": "address"
        }
      ],
      "stateMutability": "view",
      "type": "function",
      "constant": true
    }
  ],
  "bytecode": "0x608060405234801561001057600080fd5b5061083a806100206000396000f3fe608060405234801561001057600080fd5b50600436106100415760003560e01c8063b027102314610046578063e37ffc3014610076578063e775576114610092575b600080fd5b610060600480360381019061005b9190610588565b6100c3565b60405161006d9190610612565b60405180910390f35b610090600480360381019061008b9190610588565b61010d565b005b6100ac60048036038101906100a79190610588565b6102a9565b6040516100ba9291906106b5565b60405180910390f35b600080826040516100d49190610721565b908152602001604051809103902060010160009054906101000a900473ffffffffffffffffffffffffffffffffffffffff169050919050565b600073ffffffffffffffffffffffffffffffffffffffff166000826040516101359190610721565b908152602001604051809103902060010160009054906101000a900473ffffffffffffffffffffffffffffffffffffffff1673ffffffffffffffffffffffffffffffffffffffff16146101bd576040517f08c379a00000000000000000000000000000000000000000000000000000000081526004016101b490610784565b60405180910390fd5b60405180604001604052808281526020013373ffffffffffffffffffffffffffffffffffffffff168152506000826040516101f89190610721565b9081526020016040518091039020600082015181600001908051906020019061022292919061038b565b5060208201518160010160006101000a81548173ffffffffffffffffffffffffffffffffffffffff021916908373ffffffffffffffffffffffffffffffffffffffff1602179055509050507f430921b453a6efbad0a7ee7b807d8698bfa8f6991266115e4a6e437b6a2960a2813360405161029e9291906106b5565b60405180910390a150565b6000818051602081018201805184825260208301602085012081835280955050505050506000915090508060000180546102e2906107d3565b80601f016020809104026020016040519081016040528092919081815260200182805461030e906107d3565b801561035b5780601f106103305761010080835404028352916020019161035b565b820191906000526020600020905b81548152906001019060200180831161033e57829003601f168201915b5050505050908060010160009054906101000a900473ffffffffffffffffffffffffffffffffffffffff16905082565b828054610397906107d3565b90600052602060002090601f0160209004810192826103b95760008555610400565b82601f106103d257805160ff1916838001178555610400565b82800160010185558215610400579182015b828111156103ff5782518255916020019190600101906103e4565b5b50905061040d9190610411565b5090565b5b8082111561042a576000816000905550600101610412565b5090565b6000604051905090565b600080fd5b600080fd5b600080fd5b600080fd5b6000601f19601f8301169050919050565b7f4e487b7100000000000000000000000000000000000000000000000000000000600052604160045260246000fd5b6104958261044c565b810181811067ffffffffffffffff821117156104b4576104b361045d565b5b80604052505050565b60006104c761042e565b90506104d3828261048c565b919050565b600067ffffffffffffffff8211156104f3576104f261045d565b5b6104fc8261044c565b9050602081019050919050565b82818337600083830152505050565b600061052b610526846104d8565b6104bd565b90508281526020810184848401111561054757610546610447565b5b610552848285610509565b509392505050565b600082601f83011261056f5761056e610442565b5b813561057f848260208601610518565b91505092915050565b60006020828403121561059e5761059d610438565b5b600082013567ffffffffffffffff8111156105bc576105bb61043d565b5b6105c88482850161055a565b91505092915050565b600073ffffffffffffffffffffffffffffffffffffffff82169050919050565b60006105fc826105d1565b9050919050565b61060c816105f1565b82525050565b60006020820190506106276000830184610603565b92915050565b600081519050919050565b600082825260208201905092915050565b60005b8381101561066757808201518184015260208101905061064c565b83811115610676576000848401525b50505050565b60006106878261062d565b6106918185610638565b93506106a1818560208601610649565b6106aa8161044c565b840191505092915050565b600060408201905081810360008301526106cf818561067c565b90506106de6020830184610603565b9392505050565b600081905092915050565b60006106fb8261062d565b61070581856106e5565b9350610715818560208601610649565b80840191505092915050565b600061072d82846106f0565b915081905092915050565b7f46696c6520616c72656164792075706c6f616465642e00000000000000000000600082015250565b600061076e601683610638565b915061077982610738565b602082019050919050565b6000602082019050818103600083015261079d81610761565b9050919050565b7f4e487b7100000000000000000000000000000000000000000000000000000000600052602260045260246000fd5b600060028204905060018216806107eb57607f821691505b6020821081036107fe576107fd6107a4565b5b5091905056fea26469706673582212201ce268a71c5301170c760e4fa4d40cf50fd142620220e120943d9fdac8fdc36e64736f6c634300080d0033",
  "immutableReferences": {},
  "source": "// SPDX-License-Identifier: MIT\r\npragma solidity ^0.8.0;\r\n\r\ncontract FileStorage {\r\n    struct File {\r\n        string hash;\r\n        address uploader;\r\n    }\r\n\r\n    mapping(string => File) public files;\r\n\r\n    event FileUploaded(string hash, address uploader);\r\n\r\n    function uploadFile(string memory _hash) public {\r\n        require(files[_hash].uploader == address(0), \"File already uploaded.\");\r\n        files[_hash] = File(_hash, msg.sender);\r\n        emit FileUploaded(_hash, msg.sender);\r\n    }\r\n\r\n    function verifyFile(string memory _hash) public view returns (address uploader) {\r\n        return files[_hash].uploader;\r\n    }\r\n}\r\n",
  "sourcePath": "C:\\Users\\Lenovo\\Downloads\\hackathon\\contracts\\FileStorage.sol",
  "compiler": {
    "name": "solc",
    "version": "0.8.13+commit.abaa5c0e.Emscripten.clang"
  },
  "schemaVersion": "3.4.16",
  "updatedAt": "2025-07-12T12:05:45.327Z",
  "networkType": "ethereum",
  "devdoc": {
    "kind": "dev",
    "methods": {},
    "version": 1
  },
  "userdoc": {
    "kind": "user",
    "methods": {},
    "version": 1
  }
}