{
  "contractName": "FileRegistry",
  "abi": [
    {
      "anonymous": false,
      "inputs": [
        {
          "indexed": false,
          "internalType": "string",
          "name": "fileHash",
          "type": "string"
        },
        {
          "indexed": true,
          "internalType": "address",
          "name": "uploader",
          "type": "address"
        },
        {
          "indexed": false,
          "internalType": "uint256",
          "name": "timestamp",
          "type": "uint256"
        }
      ],
      "name": "FileUploaded",
      "type": "event"
    },
    {
      "inputs": [
        {
          "internalType": "string",
          "name": "",
          "type": "string"
        }
      ],
      "name": "files",
      "outputs": [
        {
          "internalType": "string",
          "name": "fileHash",
          "type": "string"
        },
        {
          "internalType": "address",
          "name": "uploader",
          "type": "address"
        },
        {
          "internalType": "uint256",
          "name": "timestamp",
          "type": "uint256"
        }
      ],
      "stateMutability": "view",
      "type": "function",
      "constant": true
    },
    {
      "inputs": [
        {
          "internalType": "string",
          "name": "_fileHash",
          "type": "string"
        }
      ],
      "name": "uploadFile",
      "outputs": [],
      "stateMutability": "nonpayable",
      "type": "function"
    },
    {
      "inputs": [
        {
          "internalType": "string",
          "name": "_fileHash",
          "type": "string"
        }
      ],
      "name": "verifyFile",
      "outputs": [
        {
          "internalType": "address",
          "name": "",
          "type": "address"
        },
        {
          "internalType": "uint256",
          "name": "",
          "type": "uint256"
        }
      ],
      "stateMutability": "view",
      "type": "function",
      "constant": true
    }
  ],
  "bytecode": "0x608060405234801561001057600080fd5b50610aeb806100206000396000f3fe608060405234801561001057600080fd5b50600436106100415760003560e01c8063b027102314610046578063e37ffc3014610077578063e775576114610093575b600080fd5b610060600480360381019061005b91906106fc565b6100c5565b60405161006e92919061079f565b60405180910390f35b610091600480360381019061008c91906106fc565b61025d565b005b6100ad60048036038101906100a891906106fc565b610417565b6040516100bc93929190610850565b60405180910390f35b600080600080846040516100d991906108ca565b9081526020016040518091039020600201540361012b576040517f08c379a00000000000000000000000000000000000000000000000000000000081526004016101229061092d565b60405180910390fd5b6000808460405161013c91906108ca565b90815260200160405180910390206040518060600160405290816000820180546101659061097c565b80601f01602080910402602001604051908101604052809291908181526020018280546101919061097c565b80156101de5780601f106101b3576101008083540402835291602001916101de565b820191906000526020600020905b8154815290600101906020018083116101c157829003601f168201915b505050505081526020016001820160009054906101000a900473ffffffffffffffffffffffffffffffffffffffff1673ffffffffffffffffffffffffffffffffffffffff1673ffffffffffffffffffffffffffffffffffffffff1681526020016002820154815250509050806020015181604001519250925050915091565b60008151116102a1576040517f08c379a0000000000000000000000000000000000000000000000000000000008152600401610298906109f9565b60405180910390fd5b600080826040516102b291906108ca565b90815260200160405180910390206002015414610304576040517f08c379a00000000000000000000000000000000000000000000000000000000081526004016102fb90610a65565b60405180910390fd5b60405180606001604052808281526020013373ffffffffffffffffffffffffffffffffffffffff1681526020014281525060008260405161034591906108ca565b9081526020016040518091039020600082015181600001908051906020019061036f9291906104ff565b5060208201518160010160006101000a81548173ffffffffffffffffffffffffffffffffffffffff021916908373ffffffffffffffffffffffffffffffffffffffff160217905550604082015181600201559050503373ffffffffffffffffffffffffffffffffffffffff167f0b676c33880daff1a31fa6365b07f18cfc698e569ddd7b25365d68cfb7e6e7eb824260405161040c929190610a85565b60405180910390a250565b6000818051602081018201805184825260208301602085012081835280955050505050506000915090508060000180546104509061097c565b80601f016020809104026020016040519081016040528092919081815260200182805461047c9061097c565b80156104c95780601f1061049e576101008083540402835291602001916104c9565b820191906000526020600020905b8154815290600101906020018083116104ac57829003601f168201915b5050505050908060010160009054906101000a900473ffffffffffffffffffffffffffffffffffffffff16908060020154905083565b82805461050b9061097c565b90600052602060002090601f01602090048101928261052d5760008555610574565b82601f1061054657805160ff1916838001178555610574565b82800160010185558215610574579182015b82811115610573578251825591602001919060010190610558565b5b5090506105819190610585565b5090565b5b8082111561059e576000816000905550600101610586565b5090565b6000604051905090565b600080fd5b600080fd5b600080fd5b600080fd5b6000601f19601f8301169050919050565b7f4e487b7100000000000000000000000000000000000000000000000000000000600052604160045260246000fd5b610609826105c0565b810181811067ffffffffffffffff82111715610628576106276105d1565b5b80604052505050565b600061063b6105a2565b90506106478282610600565b919050565b600067ffffffffffffffff821115610667576106666105d1565b5b610670826105c0565b9050602081019050919050565b82818337600083830152505050565b600061069f61069a8461064c565b610631565b9050828152602081018484840111156106bb576106ba6105bb565b5b6106c684828561067d565b509392505050565b600082601f8301126106e3576106e26105b6565b5b81356106f384826020860161068c565b91505092915050565b600060208284031215610712576107116105ac565b5b600082013567ffffffffffffffff8111156107305761072f6105b1565b5b61073c848285016106ce565b91505092915050565b600073ffffffffffffffffffffffffffffffffffffffff82169050919050565b600061077082610745565b9050919050565b61078081610765565b82525050565b6000819050919050565b61079981610786565b82525050565b60006040820190506107b46000830185610777565b6107c16020830184610790565b9392505050565b600081519050919050565b600082825260208201905092915050565b60005b838110156108025780820151818401526020810190506107e7565b83811115610811576000848401525b50505050565b6000610822826107c8565b61082c81856107d3565b935061083c8185602086016107e4565b610845816105c0565b840191505092915050565b6000606082019050818103600083015261086a8186610817565b90506108796020830185610777565b6108866040830184610790565b949350505050565b600081905092915050565b60006108a4826107c8565b6108ae818561088e565b93506108be8185602086016107e4565b80840191505092915050565b60006108d68284610899565b915081905092915050565b7f46696c65206e6f7420666f756e64000000000000000000000000000000000000600082015250565b6000610917600e836107d3565b9150610922826108e1565b602082019050919050565b600060208201905081810360008301526109468161090a565b9050919050565b7f4e487b7100000000000000000000000000000000000000000000000000000000600052602260045260246000fd5b6000600282049050600182168061099457607f821691505b6020821081036109a7576109a661094d565b5b50919050565b7f486173682063616e6e6f7420626520656d707479000000000000000000000000600082015250565b60006109e36014836107d3565b91506109ee826109ad565b602082019050919050565b60006020820190508181036000830152610a12816109d6565b9050919050565b7f46696c6520616c72656164792065786973747300000000000000000000000000600082015250565b6000610a4f6013836107d3565b9150610a5a82610a19565b602082019050919050565b60006020820190508181036000830152610a7e81610a42565b9050919050565b60006040820190508181036000830152610a9f8185610817565b9050610aae6020830184610790565b939250505056fea26469706673582212205fd19478953b369021729476e2440504e4573054669577755b7272a80d2099ba64736f6c634300080d0033",
  "immutableReferences": {},
  "source": "// SPDX-License-Identifier: MIT\r\npragma solidity ^0.8.0;\r\n\r\ncontract FileRegistry {\r\n    struct FileRecord {\r\n        string fileHash;\r\n        address uploader;\r\n        uint timestamp;\r\n    }\r\n\r\n    mapping(string => FileRecord) public files;\r\n\r\n    event FileUploaded(string fileHash, address indexed uploader, uint timestamp);\r\n\r\n    function uploadFile(string memory _fileHash) public {\r\n        require(bytes(_fileHash).length > 0, \"Hash cannot be empty\");\r\n        require(files[_fileHash].timestamp == 0, \"File already exists\");\r\n\r\n        files[_fileHash] = FileRecord({\r\n            fileHash: _fileHash,\r\n            uploader: msg.sender,\r\n            timestamp: block.timestamp\r\n        });\r\n\r\n        emit FileUploaded(_fileHash, msg.sender, block.timestamp);\r\n    }\r\n\r\n    function verifyFile(string memory _fileHash) public view returns (address, uint) {\r\n        require(files[_fileHash].timestamp != 0, \"File not found\");\r\n        FileRecord memory file = files[_fileHash];\r\n        return (file.uploader, file.timestamp);\r\n    }\r\n}\r\n",
  "sourcePath": "C:\\Users\\Lenovo\\Downloads\\hackathon\\contracts\\FileRegistry.sol",
  "compiler": {
    "name": "solc",
    "version": "0.8.13+commit.abaa5c0e.Emscripten.clang"
  },
  "schemaVersion": "3.4.16",
  "updatedAt": "2025-07-10T15:09:01.464Z",
  "networkType": "ethereum",
  "devdoc": {
    "kind": "dev",
    "methods": {},
    "version": 1
  },
  "userdoc": {
    "kind": "user",
    "methods": {},
    "version": 1
  }
}