{
  "contractName": "FileUpload",
  "abi": [
    {
      "anonymous": false,
      "inputs": [
        {
          "indexed": true,
          "internalType": "address",
          "name": "uploader",
          "type": "address"
        },
        {
          "indexed": false,
          "internalType": "string",
          "name": "fileHash",
          "type": "string"
        },
        {
          "indexed": false,
          "internalType": "string",
          "name": "cid",
          "type": "string"
        },
        {
          "indexed": false,
          "internalType": "string",
          "name": "signature",
          "type": "string"
        },
        {
          "indexed": false,
          "internalType": "uint256",
          "name": "timestamp",
          "type": "uint256"
        }
      ],
      "name": "FileUploaded",
      "type": "event"
    },
    {
      "inputs": [
        {
          "internalType": "uint256",
          "name": "",
          "type": "uint256"
        }
      ],
      "name": "files",
      "outputs": [
        {
          "internalType": "address",
          "name": "uploader",
          "type": "address"
        },
        {
          "internalType": "string",
          "name": "fileHash",
          "type": "string"
        },
        {
          "internalType": "string",
          "name": "cid",
          "type": "string"
        },
        {
          "internalType": "string",
          "name": "signature",
          "type": "string"
        },
        {
          "internalType": "uint256",
          "name": "timestamp",
          "type": "uint256"
        }
      ],
      "stateMutability": "view",
      "type": "function",
      "constant": true
    },
    {
      "inputs": [
        {
          "internalType": "string",
          "name": "",
          "type": "string"
        }
      ],
      "name": "uploadedHashes",
      "outputs": [
        {
          "internalType": "bool",
          "name": "",
          "type": "bool"
        }
      ],
      "stateMutability": "view",
      "type": "function",
      "constant": true
    },
    {
      "inputs": [
        {
          "internalType": "string",
          "name": "_fileHash",
          "type": "string"
        },
        {
          "internalType": "string",
          "name": "_cid",
          "type": "string"
        },
        {
          "internalType": "string",
          "name": "_signature",
          "type": "string"
        }
      ],
      "name": "uploadFile",
      "outputs": [],
      "stateMutability": "nonpayable",
      "type": "function"
    },
    {
      "inputs": [
        {
          "internalType": "string",
          "name": "_fileHash",
          "type": "string"
        }
      ],
      "name": "verifyFile",
      "outputs": [
        {
          "internalType": "address",
          "name": "uploader",
          "type": "address"
        },
        {
          "internalType": "string",
          "name": "cid",
          "type": "string"
        },
        {
          "internalType": "string",
          "name": "signature",
          "type": "string"
        },
        {
          "internalType": "uint256",
          "name": "timestamp",
          "type": "uint256"
        }
      ],
      "stateMutability": "view",
      "type": "function",
      "constant": true
    },
    {
      "inputs": [
        {
          "internalType": "string",
          "name": "_message",
          "type": "string"
        },
        {
          "internalType": "string",
          "name": "_signature",
          "type": "string"
        }
      ],
      "name": "verifySignature",
      "outputs": [
        {
          "internalType": "address",
          "name": "",
          "type": "address"
        }
      ],
      "stateMutability": "pure",
      "type": "function",
      "constant": true
    },
    {
      "inputs": [
        {
          "internalType": "string",
          "name": "_fileHash",
          "type": "string"
        }
      ],
      "name": "isAlreadyUploaded",
      "outputs": [
        {
          "internalType": "bool",
          "name": "",
          "type": "bool"
        }
      ],
      "stateMutability": "view",
      "type": "function",
      "constant": true
    }
  ],
  "bytecode": "0x608060405234801561001057600080fd5b5061140a806100206000396000f3fe608060405234801561001057600080fd5b50600436106100615760003560e01c8062c6bea8146100665780635cea36611461009657806381cd080f146100c657806392bb481a146100f6578063b027102314610112578063f4c714b414610145575b600080fd5b610080600480360381019061007b9190610be2565b610179565b60405161008d9190610c46565b60405180910390f35b6100b060048036038101906100ab9190610be2565b6101ae565b6040516100bd9190610c46565b60405180910390f35b6100e060048036038101906100db9190610c61565b6101e4565b6040516100ed9190610d1a565b60405180910390f35b610110600480360381019061010b9190610d35565b610287565b005b61012c60048036038101906101279190610be2565b610494565b60405161013c9493929190610e7d565b60405180910390f35b61015f600480360381019061015a9190610efc565b61074a565b604051610170959493929190610f29565b60405180910390f35b600060018260405161018b9190610fcd565b908152602001604051809103902060009054906101000a900460ff169050919050565b6001818051602081018201805184825260208301602085012081835280955050505050506000915054906101000a900460ff1681565b600080610216846040516020016101fb9190610fcd565b60405160208183030381529060405280519060200120610948565b9050600080600061022686610978565b9250925092506001848285856040516000815260200160405260405161024f9493929190611019565b6020604051602081039080840390855afa158015610271573d6000803e3d6000fd5b5050506020604051035194505050505092915050565b6001836040516102979190610fcd565b908152602001604051809103902060009054906101000a900460ff16156102f3576040517f08c379a00000000000000000000000000000000000000000000000000000000081526004016102ea906110aa565b60405180910390fd5b60006040518060a001604052803373ffffffffffffffffffffffffffffffffffffffff16815260200185815260200184815260200183815260200142815250908060018154018082558091505060019003906000526020600020906005020160009091909190915060008201518160000160006101000a81548173ffffffffffffffffffffffffffffffffffffffff021916908373ffffffffffffffffffffffffffffffffffffffff16021790555060208201518160010190805190602001906103be9291906109e5565b5060408201518160020190805190602001906103db9291906109e5565b5060608201518160030190805190602001906103f89291906109e5565b50608082015181600401555050600180846040516104169190610fcd565b908152602001604051809103902060006101000a81548160ff0219169083151502179055503373ffffffffffffffffffffffffffffffffffffffff167fa243d39caa4c5fa0efb41b7e3d59dcd1a7f72d5a6bc6c34a9bc20fcae079ead48484844260405161048794939291906110ca565b60405180910390a2505050565b6000606080600080600090505b60008054905081101561071457856040516020016104bf9190610fcd565b60405160208183030381529060405280519060200120600082815481106104e9576104e8611124565b5b906000526020600020906005020160010160405160200161050a9190611247565b6040516020818303038152906040528051906020012003610701576000818154811061053957610538611124565b5b906000526020600020906005020160000160009054906101000a900473ffffffffffffffffffffffffffffffffffffffff166000828154811061057f5761057e611124565b5b9060005260206000209060050201600201600083815481106105a4576105a3611124565b5b9060005260206000209060050201600301600084815481106105c9576105c8611124565b5b9060005260206000209060050201600401548280546105e790611182565b80601f016020809104026020016040519081016040528092919081815260200182805461061390611182565b80156106605780601f1061063557610100808354040283529160200191610660565b820191906000526020600020905b81548152906001019060200180831161064357829003601f168201915b5050505050925081805461067390611182565b80601f016020809104026020016040519081016040528092919081815260200182805461069f90611182565b80156106ec5780601f106106c1576101008083540402835291602001916106ec565b820191906000526020600020905b8154815290600101906020018083116106cf57829003601f168201915b50505050509150945094509450945050610743565b808061070c9061128d565b9150506104a1565b506000806040518060200160405280600081525090604051806020016040528060008152509093509350935093505b9193509193565b6000818154811061075a57600080fd5b90600052602060002090600502016000915090508060000160009054906101000a900473ffffffffffffffffffffffffffffffffffffffff16908060010180546107a390611182565b80601f01602080910402602001604051908101604052809291908181526020018280546107cf90611182565b801561081c5780601f106107f15761010080835404028352916020019161081c565b820191906000526020600020905b8154815290600101906020018083116107ff57829003601f168201915b50505050509080600201805461083190611182565b80601f016020809104026020016040519081016040528092919081815260200182805461085d90611182565b80156108aa5780601f1061087f576101008083540402835291602001916108aa565b820191906000526020600020905b81548152906001019060200180831161088d57829003601f168201915b5050505050908060030180546108bf90611182565b80601f01602080910402602001604051908101604052809291908181526020018280546108eb90611182565b80156109385780601f1061090d57610100808354040283529160200191610938565b820191906000526020600020905b81548152906001019060200180831161091b57829003601f168201915b5050505050908060040154905085565b60008160405160200161095b9190611342565b604051602081830303815290604052805190602001209050919050565b60008060008084905060418151146109c5576040517f08c379a00000000000000000000000000000000000000000000000000000000081526004016109bc906113b4565b60405180910390fd5b6020810151935060408101519250606081015160001a9150509193909250565b8280546109f190611182565b90600052602060002090601f016020900481019282610a135760008555610a5a565b82601f10610a2c57805160ff1916838001178555610a5a565b82800160010185558215610a5a579182015b82811115610a59578251825591602001919060010190610a3e565b5b509050610a679190610a6b565b5090565b5b80821115610a84576000816000905550600101610a6c565b5090565b6000604051905090565b600080fd5b600080fd5b600080fd5b600080fd5b6000601f19601f8301169050919050565b7f4e487b7100000000000000000000000000000000000000000000000000000000600052604160045260246000fd5b610aef82610aa6565b810181811067ffffffffffffffff82111715610b0e57610b0d610ab7565b5b80604052505050565b6000610b21610a88565b9050610b2d8282610ae6565b919050565b600067ffffffffffffffff821115610b4d57610b4c610ab7565b5b610b5682610aa6565b9050602081019050919050565b82818337600083830152505050565b6000610b85610b8084610b32565b610b17565b905082815260208101848484011115610ba157610ba0610aa1565b5b610bac848285610b63565b509392505050565b600082601f830112610bc957610bc8610a9c565b5b8135610bd9848260208601610b72565b91505092915050565b600060208284031215610bf857610bf7610a92565b5b600082013567ffffffffffffffff811115610c1657610c15610a97565b5b610c2284828501610bb4565b91505092915050565b60008115159050919050565b610c4081610c2b565b82525050565b6000602082019050610c5b6000830184610c37565b92915050565b60008060408385031215610c7857610c77610a92565b5b600083013567ffffffffffffffff811115610c9657610c95610a97565b5b610ca285828601610bb4565b925050602083013567ffffffffffffffff811115610cc357610cc2610a97565b5b610ccf85828601610bb4565b9150509250929050565b600073ffffffffffffffffffffffffffffffffffffffff82169050919050565b6000610d0482610cd9565b9050919050565b610d1481610cf9565b82525050565b6000602082019050610d2f6000830184610d0b565b92915050565b600080600060608486031215610d4e57610d4d610a92565b5b600084013567ffffffffffffffff811115610d6c57610d6b610a97565b5b610d7886828701610bb4565b935050602084013567ffffffffffffffff811115610d9957610d98610a97565b5b610da586828701610bb4565b925050604084013567ffffffffffffffff811115610dc657610dc5610a97565b5b610dd286828701610bb4565b9150509250925092565b600081519050919050565b600082825260208201905092915050565b60005b83811015610e16578082015181840152602081019050610dfb565b83811115610e25576000848401525b50505050565b6000610e3682610ddc565b610e408185610de7565b9350610e50818560208601610df8565b610e5981610aa6565b840191505092915050565b6000819050919050565b610e7781610e64565b82525050565b6000608082019050610e926000830187610d0b565b8181036020830152610ea48186610e2b565b90508181036040830152610eb88185610e2b565b9050610ec76060830184610e6e565b95945050505050565b610ed981610e64565b8114610ee457600080fd5b50565b600081359050610ef681610ed0565b92915050565b600060208284031215610f1257610f11610a92565b5b6000610f2084828501610ee7565b91505092915050565b600060a082019050610f3e6000830188610d0b565b8181036020830152610f508187610e2b565b90508181036040830152610f648186610e2b565b90508181036060830152610f788185610e2b565b9050610f876080830184610e6e565b9695505050505050565b600081905092915050565b6000610fa782610ddc565b610fb18185610f91565b9350610fc1818560208601610df8565b80840191505092915050565b6000610fd98284610f9c565b915081905092915050565b6000819050919050565b610ff781610fe4565b82525050565b600060ff82169050919050565b61101381610ffd565b82525050565b600060808201905061102e6000830187610fee565b61103b602083018661100a565b6110486040830185610fee565b6110556060830184610fee565b95945050505050565b7f4475706c69636174652066696c65000000000000000000000000000000000000600082015250565b6000611094600e83610de7565b915061109f8261105e565b602082019050919050565b600060208201905081810360008301526110c381611087565b9050919050565b600060808201905081810360008301526110e48187610e2b565b905081810360208301526110f88186610e2b565b9050818103604083015261110c8185610e2b565b905061111b6060830184610e6e565b95945050505050565b7f4e487b7100000000000000000000000000000000000000000000000000000000600052603260045260246000fd5b7f4e487b7100000000000000000000000000000000000000000000000000000000600052602260045260246000fd5b6000600282049050600182168061119a57607f821691505b6020821081036111ad576111ac611153565b5b50919050565b60008190508160005260206000209050919050565b600081546111d581611182565b6111df8186610f91565b945060018216600081146111fa576001811461120b5761123e565b60ff1983168652818601935061123e565b611214856111b3565b60005b8381101561123657815481890152600182019150602081019050611217565b838801955050505b50505092915050565b600061125382846111c8565b915081905092915050565b7f4e487b7100000000000000000000000000000000000000000000000000000000600052601160045260246000fd5b600061129882610e64565b91507fffffffffffffffffffffffffffffffffffffffffffffffffffffffffffffffff82036112ca576112c961125e565b5b600182019050919050565b7f19457468657265756d205369676e6564204d6573736167653a0a333200000000600082015250565b600061130b601c83610f91565b9150611316826112d5565b601c82019050919050565b6000819050919050565b61133c61133782610fe4565b611321565b82525050565b600061134d826112fe565b9150611359828461132b565b60208201915081905092915050565b7f496e76616c6964207369676e6174757265206c656e6774680000000000000000600082015250565b600061139e601883610de7565b91506113a982611368565b602082019050919050565b600060208201905081810360008301526113cd81611391565b905091905056fea2646970667358221220219a7052967cc7f25364602c15c1ea27b836f1d2322ac5aff71f852ca07b21d464736f6c634300080d0033",
  "immutableReferences": {},
  "source": "// SPDX-License-Identifier: MIT\r\npragma solidity ^0.8.0;\r\n\r\ncontract FileUpload {\r\n    struct FileRecord {\r\n        address uploader;\r\n        string fileHash;\r\n        string cid;\r\n        string signature;\r\n        uint256 timestamp;\r\n    }\r\n\r\n    FileRecord[] public files;\r\n\r\n    mapping(string => bool) public uploadedHashes;\r\n\r\n    event FileUploaded(\r\n        address indexed uploader,\r\n        string fileHash,\r\n        string cid,\r\n        string signature,\r\n        uint256 timestamp\r\n    );\r\n\r\n    function uploadFile(\r\n        string memory _fileHash,\r\n        string memory _cid,\r\n        string memory _signature\r\n    ) public {\r\n        require(!uploadedHashes[_fileHash], \"Duplicate file\");\r\n\r\n        files.push(FileRecord(msg.sender, _fileHash, _cid, _signature, block.timestamp));\r\n        uploadedHashes[_fileHash] = true;\r\n\r\n        emit FileUploaded(msg.sender, _fileHash, _cid, _signature, block.timestamp);\r\n    }\r\n\r\n    function verifyFile(string memory _fileHash)\r\n        public\r\n        view\r\n        returns (address uploader, string memory cid, string memory signature, uint256 timestamp)\r\n    {\r\n        for (uint i = 0; i < files.length; i++) {\r\n            if (\r\n                keccak256(abi.encodePacked(files[i].fileHash)) ==\r\n                keccak256(abi.encodePacked(_fileHash))\r\n            ) {\r\n                return (\r\n                    files[i].uploader,\r\n                    files[i].cid,\r\n                    files[i].signature,\r\n                    files[i].timestamp\r\n                );\r\n            }\r\n        }\r\n        return (address(0), \"\", \"\", 0);\r\n    }\r\n\r\n    function verifySignature(string memory _message, string memory _signature)\r\n        public\r\n        pure\r\n        returns (address)\r\n    {\r\n        bytes32 messageHash = prefixed(keccak256(abi.encodePacked(_message)));\r\n        (bytes32 r, bytes32 s, uint8 v) = splitSignature(_signature);\r\n        return ecrecover(messageHash, v, r, s);\r\n    }\r\n\r\n    function splitSignature(string memory sig)\r\n        internal\r\n        pure\r\n        returns (\r\n            bytes32 r,\r\n            bytes32 s,\r\n            uint8 v\r\n        )\r\n    {\r\n        bytes memory sigBytes = bytes(sig);\r\n        require(sigBytes.length == 65, \"Invalid signature length\");\r\n\r\n        assembly {\r\n            r := mload(add(sigBytes, 32))\r\n            s := mload(add(sigBytes, 64))\r\n            v := byte(0, mload(add(sigBytes, 96)))\r\n        }\r\n    }\r\n\r\n    function prefixed(bytes32 hash) internal pure returns (bytes32) {\r\n        return keccak256(abi.encodePacked(\"\\x19Ethereum Signed Message:\\n32\", hash));\r\n    }\r\n\r\n    function isAlreadyUploaded(string memory _fileHash) public view returns (bool) {\r\n        return uploadedHashes[_fileHash];\r\n    }\r\n}\r\n",
  "sourcePath": "C:\\Users\\Lenovo\\Downloads\\hackathon\\contracts\\FileUpload.sol",
  "compiler": {
    "name": "solc",
    "version": "0.8.13+commit.abaa5c0e.Emscripten.clang"
  },
  "schemaVersion": "3.4.16",
  "updatedAt": "2025-07-13T09:57:58.759Z",
  "networkType": "ethereum",
  "devdoc": {
    "kind": "dev",
    "methods": {},
    "version": 1
  },
  "userdoc": {
    "kind": "user",
    "methods": {},
    "version": 1
  }
}